{
  "_format": "hh-sol-artifact-1",
  "contractName": "FarmerIdentity",
  "sourceName": "contracts/FarmerIdentity.sol",
  "abi": [
    {
      "anonymous": false,
      "inputs": [
        {
          "indexed": true,
          "internalType": "address",
          "name": "wallet",
          "type": "address"
        },
        {
          "indexed": false,
          "internalType": "string",
          "name": "farmerIdHash",
          "type": "string"
        },
        {
          "indexed": false,
          "internalType": "string",
          "name": "ipfsCID",
          "type": "string"
        },
        {
          "indexed": false,
          "internalType": "uint256",
          "name": "timestamp",
          "type": "uint256"
        }
      ],
      "name": "FarmerRegistered",
      "type": "event"
    },
    {
      "inputs": [
        {
          "internalType": "address",
          "name": "",
          "type": "address"
        }
      ],
      "name": "farmers",
      "outputs": [
        {
          "internalType": "string",
          "name": "farmerIdHash",
          "type": "string"
        },
        {
          "internalType": "string",
          "name": "ipfsCID",
          "type": "string"
        },
        {
          "internalType": "uint256",
          "name": "timestamp",
          "type": "uint256"
        },
        {
          "internalType": "bool",
          "name": "isVerified",
          "type": "bool"
        }
      ],
      "stateMutability": "view",
      "type": "function"
    },
    {
      "inputs": [
        {
          "internalType": "string",
          "name": "_farmerIdHash",
          "type": "string"
        }
      ],
      "name": "getAddressByHash",
      "outputs": [
        {
          "internalType": "address",
          "name": "",
          "type": "address"
        }
      ],
      "stateMutability": "view",
      "type": "function"
    },
    {
      "inputs": [
        {
          "internalType": "address",
          "name": "_wallet",
          "type": "address"
        }
      ],
      "name": "getFarmer",
      "outputs": [
        {
          "components": [
            {
              "internalType": "string",
              "name": "farmerIdHash",
              "type": "string"
            },
            {
              "internalType": "string",
              "name": "ipfsCID",
              "type": "string"
            },
            {
              "internalType": "uint256",
              "name": "timestamp",
              "type": "uint256"
            },
            {
              "internalType": "bool",
              "name": "isVerified",
              "type": "bool"
            }
          ],
          "internalType": "struct FarmerIdentity.Farmer",
          "name": "",
          "type": "tuple"
        }
      ],
      "stateMutability": "view",
      "type": "function"
    },
    {
      "inputs": [
        {
          "internalType": "string",
          "name": "",
          "type": "string"
        }
      ],
      "name": "hashToAddress",
      "outputs": [
        {
          "internalType": "address",
          "name": "",
          "type": "address"
        }
      ],
      "stateMutability": "view",
      "type": "function"
    },
    {
      "inputs": [
        {
          "internalType": "string",
          "name": "_farmerIdHash",
          "type": "string"
        },
        {
          "internalType": "string",
          "name": "_ipfsCID",
          "type": "string"
        }
      ],
      "name": "registerFarmer",
      "outputs": [],
      "stateMutability": "nonpayable",
      "type": "function"
    },
    {
      "inputs": [
        {
          "internalType": "string",
          "name": "_farmerIdHash",
          "type": "string"
        }
      ],
      "name": "verifyHash",
      "outputs": [
        {
          "internalType": "bool",
          "name": "",
          "type": "bool"
        }
      ],
      "stateMutability": "view",
      "type": "function"
    }
  ],
  "bytecode": "0x608060405234801561001057600080fd5b50611091806100206000396000f3fe608060405234801561001057600080fd5b50600436106100625760003560e01c80632c8fa3d914610067578063314596b214610097578063401b2168146100b357806386fb2813146100e6578063b3bd2f9814610116578063e7609c1614610146575b600080fd5b610081600480360381019061007c91906108ee565b610176565b60405161008e9190610978565b60405180910390f35b6100b160048036038101906100ac9190610993565b6101be565b005b6100cd60048036038101906100c89190610a37565b6103bc565b6040516100dd9493929190610b17565b60405180910390f35b61010060048036038101906100fb91906108ee565b610509565b60405161010d9190610b6a565b60405180910390f35b610130600480360381019061012b91906108ee565b610580565b60405161013d9190610978565b60405180910390f35b610160600480360381019061015b9190610a37565b6105c9565b60405161016d9190610c57565b60405180910390f35b60006001826040516101889190610cb5565b908152602001604051809103902060009054906101000a900473ffffffffffffffffffffffffffffffffffffffff169050919050565b60008060003373ffffffffffffffffffffffffffffffffffffffff1673ffffffffffffffffffffffffffffffffffffffff168152602001908152602001600020600001805461020c90610cfb565b90501461024e576040517f08c379a000000000000000000000000000000000000000000000000000000000815260040161024590610d78565b60405180910390fd5b6040518060800160405280838152602001828152602001428152602001600115158152506000803373ffffffffffffffffffffffffffffffffffffffff1673ffffffffffffffffffffffffffffffffffffffff16815260200190815260200160002060008201518160000190816102c59190610f44565b5060208201518160010190816102db9190610f44565b506040820151816002015560608201518160030160006101000a81548160ff0219169083151502179055509050503360018360405161031a9190610cb5565b908152602001604051809103902060006101000a81548173ffffffffffffffffffffffffffffffffffffffff021916908373ffffffffffffffffffffffffffffffffffffffff1602179055503373ffffffffffffffffffffffffffffffffffffffff167f90021170cf4723f0d0126a8b974a18550b45db58817cbc0ece1e4343e2551e228383426040516103b093929190611016565b60405180910390a25050565b60006020528060005260406000206000915090508060000180546103df90610cfb565b80601f016020809104026020016040519081016040528092919081815260200182805461040b90610cfb565b80156104585780601f1061042d57610100808354040283529160200191610458565b820191906000526020600020905b81548152906001019060200180831161043b57829003601f168201915b50505050509080600101805461046d90610cfb565b80601f016020809104026020016040519081016040528092919081815260200182805461049990610cfb565b80156104e65780601f106104bb576101008083540402835291602001916104e6565b820191906000526020600020905b8154815290600101906020018083116104c957829003601f168201915b5050505050908060020154908060030160009054906101000a900460ff16905084565b60008073ffffffffffffffffffffffffffffffffffffffff166001836040516105329190610cb5565b908152602001604051809103902060009054906101000a900473ffffffffffffffffffffffffffffffffffffffff1673ffffffffffffffffffffffffffffffffffffffff1614159050919050565b6001818051602081018201805184825260208301602085012081835280955050505050506000915054906101000a900473ffffffffffffffffffffffffffffffffffffffff1681565b6105d161076a565b6000808373ffffffffffffffffffffffffffffffffffffffff1673ffffffffffffffffffffffffffffffffffffffff16815260200190815260200160002060405180608001604052908160008201805461062a90610cfb565b80601f016020809104026020016040519081016040528092919081815260200182805461065690610cfb565b80156106a35780601f10610678576101008083540402835291602001916106a3565b820191906000526020600020905b81548152906001019060200180831161068657829003601f168201915b505050505081526020016001820180546106bc90610cfb565b80601f01602080910402602001604051908101604052809291908181526020018280546106e890610cfb565b80156107355780601f1061070a57610100808354040283529160200191610735565b820191906000526020600020905b81548152906001019060200180831161071857829003601f168201915b50505050508152602001600282015481526020016003820160009054906101000a900460ff1615151515815250509050919050565b60405180608001604052806060815260200160608152602001600081526020016000151581525090565b6000604051905090565b600080fd5b600080fd5b600080fd5b600080fd5b6000601f19601f8301169050919050565b7f4e487b7100000000000000000000000000000000000000000000000000000000600052604160045260246000fd5b6107fb826107b2565b810181811067ffffffffffffffff8211171561081a576108196107c3565b5b80604052505050565b600061082d610794565b905061083982826107f2565b919050565b600067ffffffffffffffff821115610859576108586107c3565b5b610862826107b2565b9050602081019050919050565b82818337600083830152505050565b600061089161088c8461083e565b610823565b9050828152602081018484840111156108ad576108ac6107ad565b5b6108b884828561086f565b509392505050565b600082601f8301126108d5576108d46107a8565b5b81356108e584826020860161087e565b91505092915050565b6000602082840312156109045761090361079e565b5b600082013567ffffffffffffffff811115610922576109216107a3565b5b61092e848285016108c0565b91505092915050565b600073ffffffffffffffffffffffffffffffffffffffff82169050919050565b600061096282610937565b9050919050565b61097281610957565b82525050565b600060208201905061098d6000830184610969565b92915050565b600080604083850312156109aa576109a961079e565b5b600083013567ffffffffffffffff8111156109c8576109c76107a3565b5b6109d4858286016108c0565b925050602083013567ffffffffffffffff8111156109f5576109f46107a3565b5b610a01858286016108c0565b9150509250929050565b610a1481610957565b8114610a1f57600080fd5b50565b600081359050610a3181610a0b565b92915050565b600060208284031215610a4d57610a4c61079e565b5b6000610a5b84828501610a22565b91505092915050565b600081519050919050565b600082825260208201905092915050565b60005b83811015610a9e578082015181840152602081019050610a83565b60008484015250505050565b6000610ab582610a64565b610abf8185610a6f565b9350610acf818560208601610a80565b610ad8816107b2565b840191505092915050565b6000819050919050565b610af681610ae3565b82525050565b60008115159050919050565b610b1181610afc565b82525050565b60006080820190508181036000830152610b318187610aaa565b90508181036020830152610b458186610aaa565b9050610b546040830185610aed565b610b616060830184610b08565b95945050505050565b6000602082019050610b7f6000830184610b08565b92915050565b600082825260208201905092915050565b6000610ba182610a64565b610bab8185610b85565b9350610bbb818560208601610a80565b610bc4816107b2565b840191505092915050565b610bd881610ae3565b82525050565b610be781610afc565b82525050565b60006080830160008301518482036000860152610c0a8282610b96565b91505060208301518482036020860152610c248282610b96565b9150506040830151610c396040860182610bcf565b506060830151610c4c6060860182610bde565b508091505092915050565b60006020820190508181036000830152610c718184610bed565b905092915050565b600081905092915050565b6000610c8f82610a64565b610c998185610c79565b9350610ca9818560208601610a80565b80840191505092915050565b6000610cc18284610c84565b915081905092915050565b7f4e487b7100000000000000000000000000000000000000000000000000000000600052602260045260246000fd5b60006002820490506001821680610d1357607f821691505b602082108103610d2657610d25610ccc565b5b50919050565b7f57616c6c657420616c7265616479207265676973746572656400000000000000600082015250565b6000610d62601983610a6f565b9150610d6d82610d2c565b602082019050919050565b60006020820190508181036000830152610d9181610d55565b9050919050565b60008190508160005260206000209050919050565b60006020601f8301049050919050565b600082821b905092915050565b600060088302610dfa7fffffffffffffffffffffffffffffffffffffffffffffffffffffffffffffffff82610dbd565b610e048683610dbd565b95508019841693508086168417925050509392505050565b6000819050919050565b6000610e41610e3c610e3784610ae3565b610e1c565b610ae3565b9050919050565b6000819050919050565b610e5b83610e26565b610e6f610e6782610e48565b848454610dca565b825550505050565b600090565b610e84610e77565b610e8f818484610e52565b505050565b5b81811015610eb357610ea8600082610e7c565b600181019050610e95565b5050565b601f821115610ef857610ec981610d98565b610ed284610dad565b81016020851015610ee1578190505b610ef5610eed85610dad565b830182610e94565b50505b505050565b600082821c905092915050565b6000610f1b60001984600802610efd565b1980831691505092915050565b6000610f348383610f0a565b9150826002028217905092915050565b610f4d82610a64565b67ffffffffffffffff811115610f6657610f656107c3565b5b610f708254610cfb565b610f7b828285610eb7565b600060209050601f831160018114610fae5760008415610f9c578287015190505b610fa68582610f28565b86555061100e565b601f198416610fbc86610d98565b60005b82811015610fe457848901518255600182019150602085019450602081019050610fbf565b868310156110015784890151610ffd601f891682610f0a565b8355505b6001600288020188555050505b505050505050565b600060608201905081810360008301526110308186610aaa565b905081810360208301526110448185610aaa565b90506110536040830184610aed565b94935050505056fea2646970667358221220dff54bb4ba8c0bd77505dfdeead41dd353bfdc520db9c4d55bde473f3c2eb8b564736f6c63430008130033",
  "linkReferences": {},
  "deployedLinkReferences": {}
}